{
	"Desktop/solid/lottery.sol": {
		"lottery": {
			"abi": [
				{
					"inputs": [],
					"stateMutability": "nonpayable",
					"type": "constructor"
				},
				{
					"inputs": [],
					"name": "getBalance",
					"outputs": [
						{
							"internalType": "uint256",
							"name": "",
							"type": "uint256"
						}
					],
					"stateMutability": "view",
					"type": "function"
				},
				{
					"inputs": [],
					"name": "manager",
					"outputs": [
						{
							"internalType": "address",
							"name": "",
							"type": "address"
						}
					],
					"stateMutability": "view",
					"type": "function"
				},
				{
					"inputs": [
						{
							"internalType": "uint256",
							"name": "",
							"type": "uint256"
						}
					],
					"name": "participants",
					"outputs": [
						{
							"internalType": "address payable",
							"name": "",
							"type": "address"
						}
					],
					"stateMutability": "view",
					"type": "function"
				},
				{
					"inputs": [],
					"name": "participantsCount",
					"outputs": [
						{
							"internalType": "uint256",
							"name": "",
							"type": "uint256"
						}
					],
					"stateMutability": "view",
					"type": "function"
				},
				{
					"inputs": [],
					"name": "selectWinner",
					"outputs": [],
					"stateMutability": "nonpayable",
					"type": "function"
				},
				{
					"stateMutability": "payable",
					"type": "receive"
				}
			],
			"devdoc": {
				"kind": "dev",
				"methods": {},
				"version": 1
			},
			"evm": {
				"assembly": "    /* \"Desktop/solid/lottery.sol\":58:1106  contract lottery{... */\n  mstore(0x40, 0x80)\n    /* \"Desktop/solid/lottery.sol\":153:201  constructor(){... */\n  callvalue\n  dup1\n  iszero\n  tag_1\n  jumpi\n  0x00\n  dup1\n  revert\ntag_1:\n  pop\n    /* \"Desktop/solid/lottery.sol\":184:194  msg.sender */\n  caller\n    /* \"Desktop/solid/lottery.sol\":176:183  manager */\n  0x00\n  dup1\n    /* \"Desktop/solid/lottery.sol\":176:194  manager=msg.sender */\n  0x0100\n  exp\n  dup2\n  sload\n  dup2\n  0xffffffffffffffffffffffffffffffffffffffff\n  mul\n  not\n  and\n  swap1\n  dup4\n  0xffffffffffffffffffffffffffffffffffffffff\n  and\n  mul\n  or\n  swap1\n  sstore\n  pop\n    /* \"Desktop/solid/lottery.sol\":58:1106  contract lottery{... */\n  dataSize(sub_0)\n  dup1\n  dataOffset(sub_0)\n  0x00\n  codecopy\n  0x00\n  return\nstop\n\nsub_0: assembly {\n        /* \"Desktop/solid/lottery.sol\":58:1106  contract lottery{... */\n      mstore(0x40, 0x80)\n      jumpi(tag_1, lt(calldatasize, 0x04))\n      shr(0xe0, calldataload(0x00))\n      dup1\n      0x12065fe0\n      eq\n      tag_3\n      jumpi\n      dup1\n      0x33a99e04\n      eq\n      tag_4\n      jumpi\n      dup1\n      0x35c1d349\n      eq\n      tag_5\n      jumpi\n      dup1\n      0x481c6a75\n      eq\n      tag_6\n      jumpi\n      dup1\n      0xdd60c898\n      eq\n      tag_7\n      jumpi\n      jump(tag_2)\n    tag_1:\n      jumpi(tag_2, calldatasize)\n        /* \"Desktop/solid/lottery.sol\":263:266  500 */\n      0x01f4\n        /* \"Desktop/solid/lottery.sol\":252:261  msg.value */\n      callvalue\n        /* \"Desktop/solid/lottery.sol\":252:266  msg.value==500 */\n      eq\n        /* \"Desktop/solid/lottery.sol\":244:267  require(msg.value==500) */\n      tag_10\n      jumpi\n      0x00\n      dup1\n      revert\n    tag_10:\n        /* \"Desktop/solid/lottery.sol\":277:289  participants */\n      0x01\n        /* \"Desktop/solid/lottery.sol\":303:313  msg.sender */\n      caller\n        /* \"Desktop/solid/lottery.sol\":277:315  participants.push(payable(msg.sender)) */\n      swap1\n      dup1\n      0x01\n      dup2\n      sload\n      add\n      dup1\n      dup3\n      sstore\n      dup1\n      swap2\n      pop\n      pop\n      0x01\n      swap1\n      sub\n      swap1\n      0x00\n      mstore\n      keccak256(0x00, 0x20)\n      add\n      0x00\n      swap1\n      swap2\n      swap1\n      swap2\n      swap1\n      swap2\n      0x0100\n      exp\n      dup2\n      sload\n      dup2\n      0xffffffffffffffffffffffffffffffffffffffff\n      mul\n      not\n      and\n      swap1\n      dup4\n      0xffffffffffffffffffffffffffffffffffffffff\n      and\n      mul\n      or\n      swap1\n      sstore\n      stop\n        /* \"Desktop/solid/lottery.sol\":58:1106  contract lottery{... */\n    tag_2:\n      0x00\n      dup1\n      revert\n        /* \"Desktop/solid/lottery.sol\":437:572  function getBalance() public view returns(uint)... */\n    tag_3:\n      callvalue\n      dup1\n      iszero\n      tag_12\n      jumpi\n      0x00\n      dup1\n      revert\n    tag_12:\n      pop\n      tag_13\n      tag_14\n      jump\t// in\n    tag_13:\n      mload(0x40)\n      tag_15\n      swap2\n      swap1\n      tag_16\n      jump\t// in\n    tag_15:\n      mload(0x40)\n      dup1\n      swap2\n      sub\n      swap1\n      return\n        /* \"Desktop/solid/lottery.sol\":769:1103  function selectWinner() public... */\n    tag_4:\n      callvalue\n      dup1\n      iszero\n      tag_17\n      jumpi\n      0x00\n      dup1\n      revert\n    tag_17:\n      pop\n      tag_18\n      tag_19\n      jump\t// in\n    tag_18:\n      stop\n        /* \"Desktop/solid/lottery.sol\":108:146  address payable[] public  participants */\n    tag_5:\n      callvalue\n      dup1\n      iszero\n      tag_20\n      jumpi\n      0x00\n      dup1\n      revert\n    tag_20:\n      pop\n      tag_21\n      0x04\n      dup1\n      calldatasize\n      sub\n      dup2\n      add\n      swap1\n      tag_22\n      swap2\n      swap1\n      tag_23\n      jump\t// in\n    tag_22:\n      tag_24\n      jump\t// in\n    tag_21:\n      mload(0x40)\n      tag_25\n      swap2\n      swap1\n      tag_26\n      jump\t// in\n    tag_25:\n      mload(0x40)\n      dup1\n      swap2\n      sub\n      swap1\n      return\n        /* \"Desktop/solid/lottery.sol\":80:102  address public manager */\n    tag_6:\n      callvalue\n      dup1\n      iszero\n      tag_27\n      jumpi\n      0x00\n      dup1\n      revert\n    tag_27:\n      pop\n      tag_28\n      tag_29\n      jump\t// in\n    tag_28:\n      mload(0x40)\n      tag_30\n      swap2\n      swap1\n      tag_31\n      jump\t// in\n    tag_30:\n      mload(0x40)\n      dup1\n      swap2\n      sub\n      swap1\n      return\n        /* \"Desktop/solid/lottery.sol\":328:431  function participantsCount() public view returns(uint)... */\n    tag_7:\n      callvalue\n      dup1\n      iszero\n      tag_32\n      jumpi\n      0x00\n      dup1\n      revert\n    tag_32:\n      pop\n      tag_33\n      tag_34\n      jump\t// in\n    tag_33:\n      mload(0x40)\n      tag_35\n      swap2\n      swap1\n      tag_16\n      jump\t// in\n    tag_35:\n      mload(0x40)\n      dup1\n      swap2\n      sub\n      swap1\n      return\n        /* \"Desktop/solid/lottery.sol\":437:572  function getBalance() public view returns(uint)... */\n    tag_14:\n        /* \"Desktop/solid/lottery.sol\":479:483  uint */\n      0x00\n        /* \"Desktop/solid/lottery.sol\":519:526  manager */\n      dup1\n      0x00\n      swap1\n      sload\n      swap1\n      0x0100\n      exp\n      swap1\n      div\n      0xffffffffffffffffffffffffffffffffffffffff\n      and\n        /* \"Desktop/solid/lottery.sol\":507:526  msg.sender==manager */\n      0xffffffffffffffffffffffffffffffffffffffff\n      and\n        /* \"Desktop/solid/lottery.sol\":507:517  msg.sender */\n      caller\n        /* \"Desktop/solid/lottery.sol\":507:526  msg.sender==manager */\n      0xffffffffffffffffffffffffffffffffffffffff\n      and\n      eq\n        /* \"Desktop/solid/lottery.sol\":499:527  require(msg.sender==manager) */\n      tag_37\n      jumpi\n      0x00\n      dup1\n      revert\n    tag_37:\n        /* \"Desktop/solid/lottery.sol\":544:565  address(this).balance */\n      selfbalance\n        /* \"Desktop/solid/lottery.sol\":537:565  return address(this).balance */\n      swap1\n      pop\n        /* \"Desktop/solid/lottery.sol\":437:572  function getBalance() public view returns(uint)... */\n      swap1\n      jump\t// out\n        /* \"Desktop/solid/lottery.sol\":769:1103  function selectWinner() public... */\n    tag_19:\n        /* \"Desktop/solid/lottery.sol\":834:841  manager */\n      0x00\n      dup1\n      sload\n      swap1\n      0x0100\n      exp\n      swap1\n      div\n      0xffffffffffffffffffffffffffffffffffffffff\n      and\n        /* \"Desktop/solid/lottery.sol\":822:841  msg.sender==manager */\n      0xffffffffffffffffffffffffffffffffffffffff\n      and\n        /* \"Desktop/solid/lottery.sol\":822:832  msg.sender */\n      caller\n        /* \"Desktop/solid/lottery.sol\":822:841  msg.sender==manager */\n      0xffffffffffffffffffffffffffffffffffffffff\n      and\n      eq\n        /* \"Desktop/solid/lottery.sol\":814:842  require(msg.sender==manager) */\n      tag_39\n      jumpi\n      0x00\n      dup1\n      revert\n    tag_39:\n        /* \"Desktop/solid/lottery.sol\":881:882  3 */\n      0x03\n        /* \"Desktop/solid/lottery.sol\":860:872  participants */\n      0x01\n        /* \"Desktop/solid/lottery.sol\":860:879  participants.length */\n      dup1\n      sload\n      swap1\n      pop\n        /* \"Desktop/solid/lottery.sol\":860:882  participants.length>=3 */\n      lt\n      iszero\n        /* \"Desktop/solid/lottery.sol\":852:883  require(participants.length>=3) */\n      tag_40\n      jumpi\n      0x00\n      dup1\n      revert\n    tag_40:\n        /* \"Desktop/solid/lottery.sol\":893:899  uint r */\n      0x00\n        /* \"Desktop/solid/lottery.sol\":900:922  generateRandomNumber() */\n      tag_41\n        /* \"Desktop/solid/lottery.sol\":900:920  generateRandomNumber */\n      tag_42\n        /* \"Desktop/solid/lottery.sol\":900:922  generateRandomNumber() */\n      jump\t// in\n    tag_41:\n        /* \"Desktop/solid/lottery.sol\":893:922  uint r=generateRandomNumber() */\n      swap1\n      pop\n        /* \"Desktop/solid/lottery.sol\":932:943  uint winner */\n      0x00\n        /* \"Desktop/solid/lottery.sol\":946:958  participants */\n      0x01\n        /* \"Desktop/solid/lottery.sol\":946:965  participants.length */\n      dup1\n      sload\n      swap1\n      pop\n        /* \"Desktop/solid/lottery.sol\":944:945  r */\n      dup3\n        /* \"Desktop/solid/lottery.sol\":944:965  r%participants.length */\n      tag_43\n      swap2\n      swap1\n      tag_44\n      jump\t// in\n    tag_43:\n        /* \"Desktop/solid/lottery.sol\":932:965  uint winner=r%participants.length */\n      swap1\n      pop\n        /* \"Desktop/solid/lottery.sol\":975:993  address payable wa */\n      0x00\n        /* \"Desktop/solid/lottery.sol\":994:1006  participants */\n      0x01\n        /* \"Desktop/solid/lottery.sol\":1007:1013  winner */\n      dup3\n        /* \"Desktop/solid/lottery.sol\":994:1014  participants[winner] */\n      dup2\n      sload\n      dup2\n      lt\n      tag_45\n      jumpi\n      tag_46\n      tag_47\n      jump\t// in\n    tag_46:\n    tag_45:\n      swap1\n      0x00\n      mstore\n      keccak256(0x00, 0x20)\n      add\n      0x00\n      swap1\n      sload\n      swap1\n      0x0100\n      exp\n      swap1\n      div\n      0xffffffffffffffffffffffffffffffffffffffff\n      and\n        /* \"Desktop/solid/lottery.sol\":975:1014  address payable wa=participants[winner] */\n      swap1\n      pop\n        /* \"Desktop/solid/lottery.sol\":1024:1026  wa */\n      dup1\n        /* \"Desktop/solid/lottery.sol\":1024:1035  wa.transfer */\n      0xffffffffffffffffffffffffffffffffffffffff\n      and\n        /* \"Desktop/solid/lottery.sol\":1024:1049  wa.transfer(getBalance()) */\n      0x08fc\n        /* \"Desktop/solid/lottery.sol\":1036:1048  getBalance() */\n      tag_49\n        /* \"Desktop/solid/lottery.sol\":1036:1046  getBalance */\n      tag_14\n        /* \"Desktop/solid/lottery.sol\":1036:1048  getBalance() */\n      jump\t// in\n    tag_49:\n        /* \"Desktop/solid/lottery.sol\":1024:1049  wa.transfer(getBalance()) */\n      swap1\n      dup2\n      iszero\n      mul\n      swap1\n      mload(0x40)\n      0x00\n      mload(0x40)\n      dup1\n      dup4\n      sub\n      dup2\n      dup6\n      dup9\n      dup9\n      call\n      swap4\n      pop\n      pop\n      pop\n      pop\n      iszero\n      dup1\n      iszero\n      tag_51\n      jumpi\n      returndatasize\n      0x00\n      dup1\n      returndatacopy\n      revert(0x00, returndatasize)\n    tag_51:\n      pop\n        /* \"Desktop/solid/lottery.sol\":1094:1095  0 */\n      0x00\n        /* \"Desktop/solid/lottery.sol\":1072:1096  new address payable[](0) */\n      0xffffffffffffffff\n      dup2\n      gt\n      iszero\n      tag_52\n      jumpi\n      tag_53\n      tag_54\n      jump\t// in\n    tag_53:\n    tag_52:\n      mload(0x40)\n      swap1\n      dup1\n      dup3\n      mstore\n      dup1\n      0x20\n      mul\n      0x20\n      add\n      dup3\n      add\n      0x40\n      mstore\n      dup1\n      iszero\n      tag_55\n      jumpi\n      dup2\n      0x20\n      add\n      0x20\n      dup3\n      mul\n      dup1\n      calldatasize\n      dup4\n      calldatacopy\n      dup1\n      dup3\n      add\n      swap2\n      pop\n      pop\n      swap1\n      pop\n    tag_55:\n      pop\n        /* \"Desktop/solid/lottery.sol\":1059:1071  participants */\n      0x01\n        /* \"Desktop/solid/lottery.sol\":1059:1096  participants=new address payable[](0) */\n      swap1\n      dup1\n      mload\n      swap1\n      0x20\n      add\n      swap1\n      tag_56\n      swap3\n      swap2\n      swap1\n      tag_57\n      jump\t// in\n    tag_56:\n      pop\n        /* \"Desktop/solid/lottery.sol\":804:1103  {... */\n      pop\n      pop\n      pop\n        /* \"Desktop/solid/lottery.sol\":769:1103  function selectWinner() public... */\n      jump\t// out\n        /* \"Desktop/solid/lottery.sol\":108:146  address payable[] public  participants */\n    tag_24:\n      0x01\n      dup2\n      dup2\n      sload\n      dup2\n      lt\n      tag_58\n      jumpi\n      0x00\n      dup1\n      revert\n    tag_58:\n      swap1\n      0x00\n      mstore\n      keccak256(0x00, 0x20)\n      add\n      0x00\n      swap2\n      pop\n      sload\n      swap1\n      0x0100\n      exp\n      swap1\n      div\n      0xffffffffffffffffffffffffffffffffffffffff\n      and\n      dup2\n      jump\t// out\n        /* \"Desktop/solid/lottery.sol\":80:102  address public manager */\n    tag_29:\n      0x00\n      dup1\n      sload\n      swap1\n      0x0100\n      exp\n      swap1\n      div\n      0xffffffffffffffffffffffffffffffffffffffff\n      and\n      dup2\n      jump\t// out\n        /* \"Desktop/solid/lottery.sol\":328:431  function participantsCount() public view returns(uint)... */\n    tag_34:\n        /* \"Desktop/solid/lottery.sol\":377:381  uint */\n      0x00\n        /* \"Desktop/solid/lottery.sol\":405:417  participants */\n      0x01\n        /* \"Desktop/solid/lottery.sol\":405:424  participants.length */\n      dup1\n      sload\n      swap1\n      pop\n        /* \"Desktop/solid/lottery.sol\":397:424  return  participants.length */\n      swap1\n      pop\n        /* \"Desktop/solid/lottery.sol\":328:431  function participantsCount() public view returns(uint)... */\n      swap1\n      jump\t// out\n        /* \"Desktop/solid/lottery.sol\":578:763  function generateRandomNumber() internal view  returns(uint)... */\n    tag_42:\n        /* \"Desktop/solid/lottery.sol\":633:637  uint */\n      0x00\n        /* \"Desktop/solid/lottery.sol\":715:716  1 */\n      0x01\n        /* \"Desktop/solid/lottery.sol\":702:714  block.number */\n      number\n        /* \"Desktop/solid/lottery.sol\":702:716  block.number-1 */\n      tag_62\n      swap2\n      swap1\n      tag_63\n      jump\t// in\n    tag_62:\n        /* \"Desktop/solid/lottery.sol\":692:717  blockhash(block.number-1) */\n      blockhash\n        /* \"Desktop/solid/lottery.sol\":718:733  block.timestamp */\n      timestamp\n        /* \"Desktop/solid/lottery.sol\":734:746  participants */\n      0x01\n        /* \"Desktop/solid/lottery.sol\":734:753  participants.length */\n      dup1\n      sload\n      swap1\n      pop\n        /* \"Desktop/solid/lottery.sol\":675:754  abi.encodePacked(blockhash(block.number-1),block.timestamp,participants.length) */\n      add(0x20, mload(0x40))\n      tag_64\n      swap4\n      swap3\n      swap2\n      swap1\n      tag_65\n      jump\t// in\n    tag_64:\n      mload(0x40)\n      0x20\n      dup2\n      dup4\n      sub\n      sub\n      dup2\n      mstore\n      swap1\n      0x40\n      mstore\n        /* \"Desktop/solid/lottery.sol\":665:755  keccak256(abi.encodePacked(blockhash(block.number-1),block.timestamp,participants.length)) */\n      dup1\n      mload\n      swap1\n      0x20\n      add\n      keccak256\n        /* \"Desktop/solid/lottery.sol\":660:756  uint(keccak256(abi.encodePacked(blockhash(block.number-1),block.timestamp,participants.length))) */\n      0x00\n      shr\n        /* \"Desktop/solid/lottery.sol\":653:756  return uint(keccak256(abi.encodePacked(blockhash(block.number-1),block.timestamp,participants.length))) */\n      swap1\n      pop\n        /* \"Desktop/solid/lottery.sol\":578:763  function generateRandomNumber() internal view  returns(uint)... */\n      swap1\n      jump\t// out\n    tag_57:\n      dup3\n      dup1\n      sload\n      dup3\n      dup3\n      sstore\n      swap1\n      0x00\n      mstore\n      keccak256(0x00, 0x20)\n      swap1\n      dup2\n      add\n      swap3\n      dup3\n      iszero\n      tag_66\n      jumpi\n      swap2\n      0x20\n      mul\n      dup3\n      add\n    tag_67:\n      dup3\n      dup2\n      gt\n      iszero\n      tag_68\n      jumpi\n      dup3\n      mload\n      dup3\n      exp(0x0100, 0x00)\n      dup2\n      sload\n      dup2\n      0xffffffffffffffffffffffffffffffffffffffff\n      mul\n      not\n      and\n      swap1\n      dup4\n      0xffffffffffffffffffffffffffffffffffffffff\n      and\n      mul\n      or\n      swap1\n      sstore\n      pop\n      swap2\n      0x20\n      add\n      swap2\n      swap1\n      0x01\n      add\n      swap1\n      jump(tag_67)\n    tag_68:\n    tag_66:\n      pop\n      swap1\n      pop\n      tag_69\n      swap2\n      swap1\n      tag_70\n      jump\t// in\n    tag_69:\n      pop\n      swap1\n      jump\t// out\n    tag_70:\n    tag_71:\n      dup1\n      dup3\n      gt\n      iszero\n      tag_72\n      jumpi\n      0x00\n      dup2\n      0x00\n      swap1\n      sstore\n      pop\n      0x01\n      add\n      jump(tag_71)\n    tag_72:\n      pop\n      swap1\n      jump\t// out\n        /* \"#utility.yul\":7:84   */\n    tag_73:\n        /* \"#utility.yul\":44:51   */\n      0x00\n        /* \"#utility.yul\":73:78   */\n      dup2\n        /* \"#utility.yul\":62:78   */\n      swap1\n      pop\n        /* \"#utility.yul\":7:84   */\n      swap2\n      swap1\n      pop\n      jump\t// out\n        /* \"#utility.yul\":90:208   */\n    tag_74:\n        /* \"#utility.yul\":177:201   */\n      tag_95\n        /* \"#utility.yul\":195:200   */\n      dup2\n        /* \"#utility.yul\":177:201   */\n      tag_73\n      jump\t// in\n    tag_95:\n        /* \"#utility.yul\":172:175   */\n      dup3\n        /* \"#utility.yul\":165:202   */\n      mstore\n        /* \"#utility.yul\":90:208   */\n      pop\n      pop\n      jump\t// out\n        /* \"#utility.yul\":214:436   */\n    tag_16:\n        /* \"#utility.yul\":307:311   */\n      0x00\n        /* \"#utility.yul\":345:347   */\n      0x20\n        /* \"#utility.yul\":334:343   */\n      dup3\n        /* \"#utility.yul\":330:348   */\n      add\n        /* \"#utility.yul\":322:348   */\n      swap1\n      pop\n        /* \"#utility.yul\":358:429   */\n      tag_97\n        /* \"#utility.yul\":426:427   */\n      0x00\n        /* \"#utility.yul\":415:424   */\n      dup4\n        /* \"#utility.yul\":411:428   */\n      add\n        /* \"#utility.yul\":402:408   */\n      dup5\n        /* \"#utility.yul\":358:429   */\n      tag_74\n      jump\t// in\n    tag_97:\n        /* \"#utility.yul\":214:436   */\n      swap3\n      swap2\n      pop\n      pop\n      jump\t// out\n        /* \"#utility.yul\":523:640   */\n    tag_76:\n        /* \"#utility.yul\":632:633   */\n      0x00\n        /* \"#utility.yul\":629:630   */\n      dup1\n        /* \"#utility.yul\":622:634   */\n      revert\n        /* \"#utility.yul\":769:891   */\n    tag_78:\n        /* \"#utility.yul\":842:866   */\n      tag_102\n        /* \"#utility.yul\":860:865   */\n      dup2\n        /* \"#utility.yul\":842:866   */\n      tag_73\n      jump\t// in\n    tag_102:\n        /* \"#utility.yul\":835:840   */\n      dup2\n        /* \"#utility.yul\":832:867   */\n      eq\n        /* \"#utility.yul\":822:885   */\n      tag_103\n      jumpi\n        /* \"#utility.yul\":881:882   */\n      0x00\n        /* \"#utility.yul\":878:879   */\n      dup1\n        /* \"#utility.yul\":871:883   */\n      revert\n        /* \"#utility.yul\":822:885   */\n    tag_103:\n        /* \"#utility.yul\":769:891   */\n      pop\n      jump\t// out\n        /* \"#utility.yul\":897:1036   */\n    tag_79:\n        /* \"#utility.yul\":943:948   */\n      0x00\n        /* \"#utility.yul\":981:987   */\n      dup2\n        /* \"#utility.yul\":968:988   */\n      calldataload\n        /* \"#utility.yul\":959:988   */\n      swap1\n      pop\n        /* \"#utility.yul\":997:1030   */\n      tag_105\n        /* \"#utility.yul\":1024:1029   */\n      dup2\n        /* \"#utility.yul\":997:1030   */\n      tag_78\n      jump\t// in\n    tag_105:\n        /* \"#utility.yul\":897:1036   */\n      swap3\n      swap2\n      pop\n      pop\n      jump\t// out\n        /* \"#utility.yul\":1042:1371   */\n    tag_23:\n        /* \"#utility.yul\":1101:1107   */\n      0x00\n        /* \"#utility.yul\":1150:1152   */\n      0x20\n        /* \"#utility.yul\":1138:1147   */\n      dup3\n        /* \"#utility.yul\":1129:1136   */\n      dup5\n        /* \"#utility.yul\":1125:1148   */\n      sub\n        /* \"#utility.yul\":1121:1153   */\n      slt\n        /* \"#utility.yul\":1118:1237   */\n      iszero\n      tag_107\n      jumpi\n        /* \"#utility.yul\":1156:1235   */\n      tag_108\n      tag_76\n      jump\t// in\n    tag_108:\n        /* \"#utility.yul\":1118:1237   */\n    tag_107:\n        /* \"#utility.yul\":1276:1277   */\n      0x00\n        /* \"#utility.yul\":1301:1354   */\n      tag_109\n        /* \"#utility.yul\":1346:1353   */\n      dup5\n        /* \"#utility.yul\":1337:1343   */\n      dup3\n        /* \"#utility.yul\":1326:1335   */\n      dup6\n        /* \"#utility.yul\":1322:1344   */\n      add\n        /* \"#utility.yul\":1301:1354   */\n      tag_79\n      jump\t// in\n    tag_109:\n        /* \"#utility.yul\":1291:1354   */\n      swap2\n      pop\n        /* \"#utility.yul\":1247:1364   */\n      pop\n        /* \"#utility.yul\":1042:1371   */\n      swap3\n      swap2\n      pop\n      pop\n      jump\t// out\n        /* \"#utility.yul\":1377:1503   */\n    tag_80:\n        /* \"#utility.yul\":1414:1421   */\n      0x00\n        /* \"#utility.yul\":1454:1496   */\n      0xffffffffffffffffffffffffffffffffffffffff\n        /* \"#utility.yul\":1447:1452   */\n      dup3\n        /* \"#utility.yul\":1443:1497   */\n      and\n        /* \"#utility.yul\":1432:1497   */\n      swap1\n      pop\n        /* \"#utility.yul\":1377:1503   */\n      swap2\n      swap1\n      pop\n      jump\t// out\n        /* \"#utility.yul\":1509:1613   */\n    tag_81:\n        /* \"#utility.yul\":1554:1561   */\n      0x00\n        /* \"#utility.yul\":1583:1607   */\n      tag_112\n        /* \"#utility.yul\":1601:1606   */\n      dup3\n        /* \"#utility.yul\":1583:1607   */\n      tag_80\n      jump\t// in\n    tag_112:\n        /* \"#utility.yul\":1572:1607   */\n      swap1\n      pop\n        /* \"#utility.yul\":1509:1613   */\n      swap2\n      swap1\n      pop\n      jump\t// out\n        /* \"#utility.yul\":1619:1761   */\n    tag_82:\n        /* \"#utility.yul\":1722:1754   */\n      tag_114\n        /* \"#utility.yul\":1748:1753   */\n      dup2\n        /* \"#utility.yul\":1722:1754   */\n      tag_81\n      jump\t// in\n    tag_114:\n        /* \"#utility.yul\":1717:1720   */\n      dup3\n        /* \"#utility.yul\":1710:1755   */\n      mstore\n        /* \"#utility.yul\":1619:1761   */\n      pop\n      pop\n      jump\t// out\n        /* \"#utility.yul\":1767:2021   */\n    tag_26:\n        /* \"#utility.yul\":1876:1880   */\n      0x00\n        /* \"#utility.yul\":1914:1916   */\n      0x20\n        /* \"#utility.yul\":1903:1912   */\n      dup3\n        /* \"#utility.yul\":1899:1917   */\n      add\n        /* \"#utility.yul\":1891:1917   */\n      swap1\n      pop\n        /* \"#utility.yul\":1927:2014   */\n      tag_116\n        /* \"#utility.yul\":2011:2012   */\n      0x00\n        /* \"#utility.yul\":2000:2009   */\n      dup4\n        /* \"#utility.yul\":1996:2013   */\n      add\n        /* \"#utility.yul\":1987:1993   */\n      dup5\n        /* \"#utility.yul\":1927:2014   */\n      tag_82\n      jump\t// in\n    tag_116:\n        /* \"#utility.yul\":1767:2021   */\n      swap3\n      swap2\n      pop\n      pop\n      jump\t// out\n        /* \"#utility.yul\":2027:2123   */\n    tag_83:\n        /* \"#utility.yul\":2064:2071   */\n      0x00\n        /* \"#utility.yul\":2093:2117   */\n      tag_118\n        /* \"#utility.yul\":2111:2116   */\n      dup3\n        /* \"#utility.yul\":2093:2117   */\n      tag_80\n      jump\t// in\n    tag_118:\n        /* \"#utility.yul\":2082:2117   */\n      swap1\n      pop\n        /* \"#utility.yul\":2027:2123   */\n      swap2\n      swap1\n      pop\n      jump\t// out\n        /* \"#utility.yul\":2129:2247   */\n    tag_84:\n        /* \"#utility.yul\":2216:2240   */\n      tag_120\n        /* \"#utility.yul\":2234:2239   */\n      dup2\n        /* \"#utility.yul\":2216:2240   */\n      tag_83\n      jump\t// in\n    tag_120:\n        /* \"#utility.yul\":2211:2214   */\n      dup3\n        /* \"#utility.yul\":2204:2241   */\n      mstore\n        /* \"#utility.yul\":2129:2247   */\n      pop\n      pop\n      jump\t// out\n        /* \"#utility.yul\":2253:2475   */\n    tag_31:\n        /* \"#utility.yul\":2346:2350   */\n      0x00\n        /* \"#utility.yul\":2384:2386   */\n      0x20\n        /* \"#utility.yul\":2373:2382   */\n      dup3\n        /* \"#utility.yul\":2369:2387   */\n      add\n        /* \"#utility.yul\":2361:2387   */\n      swap1\n      pop\n        /* \"#utility.yul\":2397:2468   */\n      tag_122\n        /* \"#utility.yul\":2465:2466   */\n      0x00\n        /* \"#utility.yul\":2454:2463   */\n      dup4\n        /* \"#utility.yul\":2450:2467   */\n      add\n        /* \"#utility.yul\":2441:2447   */\n      dup5\n        /* \"#utility.yul\":2397:2468   */\n      tag_84\n      jump\t// in\n    tag_122:\n        /* \"#utility.yul\":2253:2475   */\n      swap3\n      swap2\n      pop\n      pop\n      jump\t// out\n        /* \"#utility.yul\":2481:2661   */\n    tag_85:\n        /* \"#utility.yul\":2529:2606   */\n      0x4e487b7100000000000000000000000000000000000000000000000000000000\n        /* \"#utility.yul\":2526:2527   */\n      0x00\n        /* \"#utility.yul\":2519:2607   */\n      mstore\n        /* \"#utility.yul\":2626:2630   */\n      0x12\n        /* \"#utility.yul\":2623:2624   */\n      0x04\n        /* \"#utility.yul\":2616:2631   */\n      mstore\n        /* \"#utility.yul\":2650:2654   */\n      0x24\n        /* \"#utility.yul\":2647:2648   */\n      0x00\n        /* \"#utility.yul\":2640:2655   */\n      revert\n        /* \"#utility.yul\":2667:2843   */\n    tag_44:\n        /* \"#utility.yul\":2699:2700   */\n      0x00\n        /* \"#utility.yul\":2716:2736   */\n      tag_125\n        /* \"#utility.yul\":2734:2735   */\n      dup3\n        /* \"#utility.yul\":2716:2736   */\n      tag_73\n      jump\t// in\n    tag_125:\n        /* \"#utility.yul\":2711:2736   */\n      swap2\n      pop\n        /* \"#utility.yul\":2750:2770   */\n      tag_126\n        /* \"#utility.yul\":2768:2769   */\n      dup4\n        /* \"#utility.yul\":2750:2770   */\n      tag_73\n      jump\t// in\n    tag_126:\n        /* \"#utility.yul\":2745:2770   */\n      swap3\n      pop\n        /* \"#utility.yul\":2789:2790   */\n      dup3\n        /* \"#utility.yul\":2779:2814   */\n      tag_127\n      jumpi\n        /* \"#utility.yul\":2794:2812   */\n      tag_128\n      tag_85\n      jump\t// in\n    tag_128:\n        /* \"#utility.yul\":2779:2814   */\n    tag_127:\n        /* \"#utility.yul\":2835:2836   */\n      dup3\n        /* \"#utility.yul\":2832:2833   */\n      dup3\n        /* \"#utility.yul\":2828:2837   */\n      mod\n        /* \"#utility.yul\":2823:2837   */\n      swap1\n      pop\n        /* \"#utility.yul\":2667:2843   */\n      swap3\n      swap2\n      pop\n      pop\n      jump\t// out\n        /* \"#utility.yul\":2849:3029   */\n    tag_47:\n        /* \"#utility.yul\":2897:2974   */\n      0x4e487b7100000000000000000000000000000000000000000000000000000000\n        /* \"#utility.yul\":2894:2895   */\n      0x00\n        /* \"#utility.yul\":2887:2975   */\n      mstore\n        /* \"#utility.yul\":2994:2998   */\n      0x32\n        /* \"#utility.yul\":2991:2992   */\n      0x04\n        /* \"#utility.yul\":2984:2999   */\n      mstore\n        /* \"#utility.yul\":3018:3022   */\n      0x24\n        /* \"#utility.yul\":3015:3016   */\n      0x00\n        /* \"#utility.yul\":3008:3023   */\n      revert\n        /* \"#utility.yul\":3035:3215   */\n    tag_54:\n        /* \"#utility.yul\":3083:3160   */\n      0x4e487b7100000000000000000000000000000000000000000000000000000000\n        /* \"#utility.yul\":3080:3081   */\n      0x00\n        /* \"#utility.yul\":3073:3161   */\n      mstore\n        /* \"#utility.yul\":3180:3184   */\n      0x41\n        /* \"#utility.yul\":3177:3178   */\n      0x04\n        /* \"#utility.yul\":3170:3185   */\n      mstore\n        /* \"#utility.yul\":3204:3208   */\n      0x24\n        /* \"#utility.yul\":3201:3202   */\n      0x00\n        /* \"#utility.yul\":3194:3209   */\n      revert\n        /* \"#utility.yul\":3221:3401   */\n    tag_86:\n        /* \"#utility.yul\":3269:3346   */\n      0x4e487b7100000000000000000000000000000000000000000000000000000000\n        /* \"#utility.yul\":3266:3267   */\n      0x00\n        /* \"#utility.yul\":3259:3347   */\n      mstore\n        /* \"#utility.yul\":3366:3370   */\n      0x11\n        /* \"#utility.yul\":3363:3364   */\n      0x04\n        /* \"#utility.yul\":3356:3371   */\n      mstore\n        /* \"#utility.yul\":3390:3394   */\n      0x24\n        /* \"#utility.yul\":3387:3388   */\n      0x00\n        /* \"#utility.yul\":3380:3395   */\n      revert\n        /* \"#utility.yul\":3407:3601   */\n    tag_63:\n        /* \"#utility.yul\":3447:3451   */\n      0x00\n        /* \"#utility.yul\":3467:3487   */\n      tag_133\n        /* \"#utility.yul\":3485:3486   */\n      dup3\n        /* \"#utility.yul\":3467:3487   */\n      tag_73\n      jump\t// in\n    tag_133:\n        /* \"#utility.yul\":3462:3487   */\n      swap2\n      pop\n        /* \"#utility.yul\":3501:3521   */\n      tag_134\n        /* \"#utility.yul\":3519:3520   */\n      dup4\n        /* \"#utility.yul\":3501:3521   */\n      tag_73\n      jump\t// in\n    tag_134:\n        /* \"#utility.yul\":3496:3521   */\n      swap3\n      pop\n        /* \"#utility.yul\":3545:3546   */\n      dup3\n        /* \"#utility.yul\":3542:3543   */\n      dup3\n        /* \"#utility.yul\":3538:3547   */\n      sub\n        /* \"#utility.yul\":3530:3547   */\n      swap1\n      pop\n        /* \"#utility.yul\":3569:3570   */\n      dup2\n        /* \"#utility.yul\":3563:3567   */\n      dup2\n        /* \"#utility.yul\":3560:3571   */\n      gt\n        /* \"#utility.yul\":3557:3594   */\n      iszero\n      tag_135\n      jumpi\n        /* \"#utility.yul\":3574:3592   */\n      tag_136\n      tag_86\n      jump\t// in\n    tag_136:\n        /* \"#utility.yul\":3557:3594   */\n    tag_135:\n        /* \"#utility.yul\":3407:3601   */\n      swap3\n      swap2\n      pop\n      pop\n      jump\t// out\n        /* \"#utility.yul\":3607:3684   */\n    tag_87:\n        /* \"#utility.yul\":3644:3651   */\n      0x00\n        /* \"#utility.yul\":3673:3678   */\n      dup2\n        /* \"#utility.yul\":3662:3678   */\n      swap1\n      pop\n        /* \"#utility.yul\":3607:3684   */\n      swap2\n      swap1\n      pop\n      jump\t// out\n        /* \"#utility.yul\":3690:3769   */\n    tag_88:\n        /* \"#utility.yul\":3729:3736   */\n      0x00\n        /* \"#utility.yul\":3758:3763   */\n      dup2\n        /* \"#utility.yul\":3747:3763   */\n      swap1\n      pop\n        /* \"#utility.yul\":3690:3769   */\n      swap2\n      swap1\n      pop\n      jump\t// out\n        /* \"#utility.yul\":3775:3932   */\n    tag_89:\n        /* \"#utility.yul\":3880:3925   */\n      tag_140\n        /* \"#utility.yul\":3900:3924   */\n      tag_141\n        /* \"#utility.yul\":3918:3923   */\n      dup3\n        /* \"#utility.yul\":3900:3924   */\n      tag_87\n      jump\t// in\n    tag_141:\n        /* \"#utility.yul\":3880:3925   */\n      tag_88\n      jump\t// in\n    tag_140:\n        /* \"#utility.yul\":3875:3878   */\n      dup3\n        /* \"#utility.yul\":3868:3926   */\n      mstore\n        /* \"#utility.yul\":3775:3932   */\n      pop\n      pop\n      jump\t// out\n        /* \"#utility.yul\":3938:4017   */\n    tag_90:\n        /* \"#utility.yul\":3977:3984   */\n      0x00\n        /* \"#utility.yul\":4006:4011   */\n      dup2\n        /* \"#utility.yul\":3995:4011   */\n      swap1\n      pop\n        /* \"#utility.yul\":3938:4017   */\n      swap2\n      swap1\n      pop\n      jump\t// out\n        /* \"#utility.yul\":4023:4180   */\n    tag_91:\n        /* \"#utility.yul\":4128:4173   */\n      tag_144\n        /* \"#utility.yul\":4148:4172   */\n      tag_145\n        /* \"#utility.yul\":4166:4171   */\n      dup3\n        /* \"#utility.yul\":4148:4172   */\n      tag_73\n      jump\t// in\n    tag_145:\n        /* \"#utility.yul\":4128:4173   */\n      tag_90\n      jump\t// in\n    tag_144:\n        /* \"#utility.yul\":4123:4126   */\n      dup3\n        /* \"#utility.yul\":4116:4174   */\n      mstore\n        /* \"#utility.yul\":4023:4180   */\n      pop\n      pop\n      jump\t// out\n        /* \"#utility.yul\":4186:4724   */\n    tag_65:\n        /* \"#utility.yul\":4354:4357   */\n      0x00\n        /* \"#utility.yul\":4369:4444   */\n      tag_147\n        /* \"#utility.yul\":4440:4443   */\n      dup3\n        /* \"#utility.yul\":4431:4437   */\n      dup7\n        /* \"#utility.yul\":4369:4444   */\n      tag_89\n      jump\t// in\n    tag_147:\n        /* \"#utility.yul\":4469:4471   */\n      0x20\n        /* \"#utility.yul\":4464:4467   */\n      dup3\n        /* \"#utility.yul\":4460:4472   */\n      add\n        /* \"#utility.yul\":4453:4472   */\n      swap2\n      pop\n        /* \"#utility.yul\":4482:4557   */\n      tag_148\n        /* \"#utility.yul\":4553:4556   */\n      dup3\n        /* \"#utility.yul\":4544:4550   */\n      dup6\n        /* \"#utility.yul\":4482:4557   */\n      tag_91\n      jump\t// in\n    tag_148:\n        /* \"#utility.yul\":4582:4584   */\n      0x20\n        /* \"#utility.yul\":4577:4580   */\n      dup3\n        /* \"#utility.yul\":4573:4585   */\n      add\n        /* \"#utility.yul\":4566:4585   */\n      swap2\n      pop\n        /* \"#utility.yul\":4595:4670   */\n      tag_149\n        /* \"#utility.yul\":4666:4669   */\n      dup3\n        /* \"#utility.yul\":4657:4663   */\n      dup5\n        /* \"#utility.yul\":4595:4670   */\n      tag_91\n      jump\t// in\n    tag_149:\n        /* \"#utility.yul\":4695:4697   */\n      0x20\n        /* \"#utility.yul\":4690:4693   */\n      dup3\n        /* \"#utility.yul\":4686:4698   */\n      add\n        /* \"#utility.yul\":4679:4698   */\n      swap2\n      pop\n        /* \"#utility.yul\":4715:4718   */\n      dup2\n        /* \"#utility.yul\":4708:4718   */\n      swap1\n      pop\n        /* \"#utility.yul\":4186:4724   */\n      swap5\n      swap4\n      pop\n      pop\n      pop\n      pop\n      jump\t// out\n\n    auxdata: 0xa26469706673582212200ffd2f40cde9acdfa253f46cfd6033c8f9498590c2d52432c17376b9516d580464736f6c63430008160033\n}\n",
				"bytecode": {
					"linkReferences": {},
					"object": "608060405234801561000f575f80fd5b50335f806101000a81548173ffffffffffffffffffffffffffffffffffffffff021916908373ffffffffffffffffffffffffffffffffffffffff1602179055506107a58061005c5f395ff3fe60806040526004361061004d575f3560e01c806312065fe0146100c457806333a99e04146100ee57806335c1d34914610104578063481c6a7514610140578063dd60c8981461016a576100c0565b366100c0576101f4341461005f575f80fd5b600133908060018154018082558091505060019003905f5260205f20015f9091909190916101000a81548173ffffffffffffffffffffffffffffffffffffffff021916908373ffffffffffffffffffffffffffffffffffffffff1602179055005b5f80fd5b3480156100cf575f80fd5b506100d8610194565b6040516100e591906104d0565b60405180910390f35b3480156100f9575f80fd5b506101026101f2565b005b34801561010f575f80fd5b5061012a60048036038101906101259190610517565b610367565b6040516101379190610581565b60405180910390f35b34801561014b575f80fd5b506101546103a2565b60405161016191906105ba565b60405180910390f35b348015610175575f80fd5b5061017e6103c5565b60405161018b91906104d0565b60405180910390f35b5f805f9054906101000a900473ffffffffffffffffffffffffffffffffffffffff1673ffffffffffffffffffffffffffffffffffffffff163373ffffffffffffffffffffffffffffffffffffffff16146101ec575f80fd5b47905090565b5f8054906101000a900473ffffffffffffffffffffffffffffffffffffffff1673ffffffffffffffffffffffffffffffffffffffff163373ffffffffffffffffffffffffffffffffffffffff1614610248575f80fd5b6003600180549050101561025a575f80fd5b5f6102636103d1565b90505f600180549050826102779190610600565b90505f6001828154811061028e5761028d610630565b5b905f5260205f20015f9054906101000a900473ffffffffffffffffffffffffffffffffffffffff1690508073ffffffffffffffffffffffffffffffffffffffff166108fc6102da610194565b90811502906040515f60405180830381858888f19350505050158015610302573d5f803e3d5ffd5b505f67ffffffffffffffff81111561031d5761031c61065d565b5b60405190808252806020026020018201604052801561034b5781602001602082028036833780820191505090505b5060019080519060200190610361929190610416565b50505050565b60018181548110610376575f80fd5b905f5260205f20015f915054906101000a900473ffffffffffffffffffffffffffffffffffffffff1681565b5f8054906101000a900473ffffffffffffffffffffffffffffffffffffffff1681565b5f600180549050905090565b5f6001436103df91906106b7565b40426001805490506040516020016103f993929190610733565b604051602081830303815290604052805190602001205f1c905090565b828054828255905f5260205f2090810192821561048c579160200282015b8281111561048b578251825f6101000a81548173ffffffffffffffffffffffffffffffffffffffff021916908373ffffffffffffffffffffffffffffffffffffffff16021790555091602001919060010190610434565b5b509050610499919061049d565b5090565b5b808211156104b4575f815f90555060010161049e565b5090565b5f819050919050565b6104ca816104b8565b82525050565b5f6020820190506104e35f8301846104c1565b92915050565b5f80fd5b6104f6816104b8565b8114610500575f80fd5b50565b5f81359050610511816104ed565b92915050565b5f6020828403121561052c5761052b6104e9565b5b5f61053984828501610503565b91505092915050565b5f73ffffffffffffffffffffffffffffffffffffffff82169050919050565b5f61056b82610542565b9050919050565b61057b81610561565b82525050565b5f6020820190506105945f830184610572565b92915050565b5f6105a482610542565b9050919050565b6105b48161059a565b82525050565b5f6020820190506105cd5f8301846105ab565b92915050565b7f4e487b71000000000000000000000000000000000000000000000000000000005f52601260045260245ffd5b5f61060a826104b8565b9150610615836104b8565b925082610625576106246105d3565b5b828206905092915050565b7f4e487b71000000000000000000000000000000000000000000000000000000005f52603260045260245ffd5b7f4e487b71000000000000000000000000000000000000000000000000000000005f52604160045260245ffd5b7f4e487b71000000000000000000000000000000000000000000000000000000005f52601160045260245ffd5b5f6106c1826104b8565b91506106cc836104b8565b92508282039050818111156106e4576106e361068a565b5b92915050565b5f819050919050565b5f819050919050565b61070d610708826106ea565b6106f3565b82525050565b5f819050919050565b61072d610728826104b8565b610713565b82525050565b5f61073e82866106fc565b60208201915061074e828561071c565b60208201915061075e828461071c565b60208201915081905094935050505056fea26469706673582212200ffd2f40cde9acdfa253f46cfd6033c8f9498590c2d52432c17376b9516d580464736f6c63430008160033",
					"opcodes": "PUSH1 0x80 PUSH1 0x40 MSTORE CALLVALUE DUP1 ISZERO PUSH2 0xF JUMPI PUSH0 DUP1 REVERT JUMPDEST POP CALLER PUSH0 DUP1 PUSH2 0x100 EXP DUP2 SLOAD DUP2 PUSH20 0xFFFFFFFFFFFFFFFFFFFFFFFFFFFFFFFFFFFFFFFF MUL NOT AND SWAP1 DUP4 PUSH20 0xFFFFFFFFFFFFFFFFFFFFFFFFFFFFFFFFFFFFFFFF AND MUL OR SWAP1 SSTORE POP PUSH2 0x7A5 DUP1 PUSH2 0x5C PUSH0 CODECOPY PUSH0 RETURN INVALID PUSH1 0x80 PUSH1 0x40 MSTORE PUSH1 0x4 CALLDATASIZE LT PUSH2 0x4D JUMPI PUSH0 CALLDATALOAD PUSH1 0xE0 SHR DUP1 PUSH4 0x12065FE0 EQ PUSH2 0xC4 JUMPI DUP1 PUSH4 0x33A99E04 EQ PUSH2 0xEE JUMPI DUP1 PUSH4 0x35C1D349 EQ PUSH2 0x104 JUMPI DUP1 PUSH4 0x481C6A75 EQ PUSH2 0x140 JUMPI DUP1 PUSH4 0xDD60C898 EQ PUSH2 0x16A JUMPI PUSH2 0xC0 JUMP JUMPDEST CALLDATASIZE PUSH2 0xC0 JUMPI PUSH2 0x1F4 CALLVALUE EQ PUSH2 0x5F JUMPI PUSH0 DUP1 REVERT JUMPDEST PUSH1 0x1 CALLER SWAP1 DUP1 PUSH1 0x1 DUP2 SLOAD ADD DUP1 DUP3 SSTORE DUP1 SWAP2 POP POP PUSH1 0x1 SWAP1 SUB SWAP1 PUSH0 MSTORE PUSH1 0x20 PUSH0 KECCAK256 ADD PUSH0 SWAP1 SWAP2 SWAP1 SWAP2 SWAP1 SWAP2 PUSH2 0x100 EXP DUP2 SLOAD DUP2 PUSH20 0xFFFFFFFFFFFFFFFFFFFFFFFFFFFFFFFFFFFFFFFF MUL NOT AND SWAP1 DUP4 PUSH20 0xFFFFFFFFFFFFFFFFFFFFFFFFFFFFFFFFFFFFFFFF AND MUL OR SWAP1 SSTORE STOP JUMPDEST PUSH0 DUP1 REVERT JUMPDEST CALLVALUE DUP1 ISZERO PUSH2 0xCF JUMPI PUSH0 DUP1 REVERT JUMPDEST POP PUSH2 0xD8 PUSH2 0x194 JUMP JUMPDEST PUSH1 0x40 MLOAD PUSH2 0xE5 SWAP2 SWAP1 PUSH2 0x4D0 JUMP JUMPDEST PUSH1 0x40 MLOAD DUP1 SWAP2 SUB SWAP1 RETURN JUMPDEST CALLVALUE DUP1 ISZERO PUSH2 0xF9 JUMPI PUSH0 DUP1 REVERT JUMPDEST POP PUSH2 0x102 PUSH2 0x1F2 JUMP JUMPDEST STOP JUMPDEST CALLVALUE DUP1 ISZERO PUSH2 0x10F JUMPI PUSH0 DUP1 REVERT JUMPDEST POP PUSH2 0x12A PUSH1 0x4 DUP1 CALLDATASIZE SUB DUP2 ADD SWAP1 PUSH2 0x125 SWAP2 SWAP1 PUSH2 0x517 JUMP JUMPDEST PUSH2 0x367 JUMP JUMPDEST PUSH1 0x40 MLOAD PUSH2 0x137 SWAP2 SWAP1 PUSH2 0x581 JUMP JUMPDEST PUSH1 0x40 MLOAD DUP1 SWAP2 SUB SWAP1 RETURN JUMPDEST CALLVALUE DUP1 ISZERO PUSH2 0x14B JUMPI PUSH0 DUP1 REVERT JUMPDEST POP PUSH2 0x154 PUSH2 0x3A2 JUMP JUMPDEST PUSH1 0x40 MLOAD PUSH2 0x161 SWAP2 SWAP1 PUSH2 0x5BA JUMP JUMPDEST PUSH1 0x40 MLOAD DUP1 SWAP2 SUB SWAP1 RETURN JUMPDEST CALLVALUE DUP1 ISZERO PUSH2 0x175 JUMPI PUSH0 DUP1 REVERT JUMPDEST POP PUSH2 0x17E PUSH2 0x3C5 JUMP JUMPDEST PUSH1 0x40 MLOAD PUSH2 0x18B SWAP2 SWAP1 PUSH2 0x4D0 JUMP JUMPDEST PUSH1 0x40 MLOAD DUP1 SWAP2 SUB SWAP1 RETURN JUMPDEST PUSH0 DUP1 PUSH0 SWAP1 SLOAD SWAP1 PUSH2 0x100 EXP SWAP1 DIV PUSH20 0xFFFFFFFFFFFFFFFFFFFFFFFFFFFFFFFFFFFFFFFF AND PUSH20 0xFFFFFFFFFFFFFFFFFFFFFFFFFFFFFFFFFFFFFFFF AND CALLER PUSH20 0xFFFFFFFFFFFFFFFFFFFFFFFFFFFFFFFFFFFFFFFF AND EQ PUSH2 0x1EC JUMPI PUSH0 DUP1 REVERT JUMPDEST SELFBALANCE SWAP1 POP SWAP1 JUMP JUMPDEST PUSH0 DUP1 SLOAD SWAP1 PUSH2 0x100 EXP SWAP1 DIV PUSH20 0xFFFFFFFFFFFFFFFFFFFFFFFFFFFFFFFFFFFFFFFF AND PUSH20 0xFFFFFFFFFFFFFFFFFFFFFFFFFFFFFFFFFFFFFFFF AND CALLER PUSH20 0xFFFFFFFFFFFFFFFFFFFFFFFFFFFFFFFFFFFFFFFF AND EQ PUSH2 0x248 JUMPI PUSH0 DUP1 REVERT JUMPDEST PUSH1 0x3 PUSH1 0x1 DUP1 SLOAD SWAP1 POP LT ISZERO PUSH2 0x25A JUMPI PUSH0 DUP1 REVERT JUMPDEST PUSH0 PUSH2 0x263 PUSH2 0x3D1 JUMP JUMPDEST SWAP1 POP PUSH0 PUSH1 0x1 DUP1 SLOAD SWAP1 POP DUP3 PUSH2 0x277 SWAP2 SWAP1 PUSH2 0x600 JUMP JUMPDEST SWAP1 POP PUSH0 PUSH1 0x1 DUP3 DUP2 SLOAD DUP2 LT PUSH2 0x28E JUMPI PUSH2 0x28D PUSH2 0x630 JUMP JUMPDEST JUMPDEST SWAP1 PUSH0 MSTORE PUSH1 0x20 PUSH0 KECCAK256 ADD PUSH0 SWAP1 SLOAD SWAP1 PUSH2 0x100 EXP SWAP1 DIV PUSH20 0xFFFFFFFFFFFFFFFFFFFFFFFFFFFFFFFFFFFFFFFF AND SWAP1 POP DUP1 PUSH20 0xFFFFFFFFFFFFFFFFFFFFFFFFFFFFFFFFFFFFFFFF AND PUSH2 0x8FC PUSH2 0x2DA PUSH2 0x194 JUMP JUMPDEST SWAP1 DUP2 ISZERO MUL SWAP1 PUSH1 0x40 MLOAD PUSH0 PUSH1 0x40 MLOAD DUP1 DUP4 SUB DUP2 DUP6 DUP9 DUP9 CALL SWAP4 POP POP POP POP ISZERO DUP1 ISZERO PUSH2 0x302 JUMPI RETURNDATASIZE PUSH0 DUP1 RETURNDATACOPY RETURNDATASIZE PUSH0 REVERT JUMPDEST POP PUSH0 PUSH8 0xFFFFFFFFFFFFFFFF DUP2 GT ISZERO PUSH2 0x31D JUMPI PUSH2 0x31C PUSH2 0x65D JUMP JUMPDEST JUMPDEST PUSH1 0x40 MLOAD SWAP1 DUP1 DUP3 MSTORE DUP1 PUSH1 0x20 MUL PUSH1 0x20 ADD DUP3 ADD PUSH1 0x40 MSTORE DUP1 ISZERO PUSH2 0x34B JUMPI DUP2 PUSH1 0x20 ADD PUSH1 0x20 DUP3 MUL DUP1 CALLDATASIZE DUP4 CALLDATACOPY DUP1 DUP3 ADD SWAP2 POP POP SWAP1 POP JUMPDEST POP PUSH1 0x1 SWAP1 DUP1 MLOAD SWAP1 PUSH1 0x20 ADD SWAP1 PUSH2 0x361 SWAP3 SWAP2 SWAP1 PUSH2 0x416 JUMP JUMPDEST POP POP POP POP JUMP JUMPDEST PUSH1 0x1 DUP2 DUP2 SLOAD DUP2 LT PUSH2 0x376 JUMPI PUSH0 DUP1 REVERT JUMPDEST SWAP1 PUSH0 MSTORE PUSH1 0x20 PUSH0 KECCAK256 ADD PUSH0 SWAP2 POP SLOAD SWAP1 PUSH2 0x100 EXP SWAP1 DIV PUSH20 0xFFFFFFFFFFFFFFFFFFFFFFFFFFFFFFFFFFFFFFFF AND DUP2 JUMP JUMPDEST PUSH0 DUP1 SLOAD SWAP1 PUSH2 0x100 EXP SWAP1 DIV PUSH20 0xFFFFFFFFFFFFFFFFFFFFFFFFFFFFFFFFFFFFFFFF AND DUP2 JUMP JUMPDEST PUSH0 PUSH1 0x1 DUP1 SLOAD SWAP1 POP SWAP1 POP SWAP1 JUMP JUMPDEST PUSH0 PUSH1 0x1 NUMBER PUSH2 0x3DF SWAP2 SWAP1 PUSH2 0x6B7 JUMP JUMPDEST BLOCKHASH TIMESTAMP PUSH1 0x1 DUP1 SLOAD SWAP1 POP PUSH1 0x40 MLOAD PUSH1 0x20 ADD PUSH2 0x3F9 SWAP4 SWAP3 SWAP2 SWAP1 PUSH2 0x733 JUMP JUMPDEST PUSH1 0x40 MLOAD PUSH1 0x20 DUP2 DUP4 SUB SUB DUP2 MSTORE SWAP1 PUSH1 0x40 MSTORE DUP1 MLOAD SWAP1 PUSH1 0x20 ADD KECCAK256 PUSH0 SHR SWAP1 POP SWAP1 JUMP JUMPDEST DUP3 DUP1 SLOAD DUP3 DUP3 SSTORE SWAP1 PUSH0 MSTORE PUSH1 0x20 PUSH0 KECCAK256 SWAP1 DUP2 ADD SWAP3 DUP3 ISZERO PUSH2 0x48C JUMPI SWAP2 PUSH1 0x20 MUL DUP3 ADD JUMPDEST DUP3 DUP2 GT ISZERO PUSH2 0x48B JUMPI DUP3 MLOAD DUP3 PUSH0 PUSH2 0x100 EXP DUP2 SLOAD DUP2 PUSH20 0xFFFFFFFFFFFFFFFFFFFFFFFFFFFFFFFFFFFFFFFF MUL NOT AND SWAP1 DUP4 PUSH20 0xFFFFFFFFFFFFFFFFFFFFFFFFFFFFFFFFFFFFFFFF AND MUL OR SWAP1 SSTORE POP SWAP2 PUSH1 0x20 ADD SWAP2 SWAP1 PUSH1 0x1 ADD SWAP1 PUSH2 0x434 JUMP JUMPDEST JUMPDEST POP SWAP1 POP PUSH2 0x499 SWAP2 SWAP1 PUSH2 0x49D JUMP JUMPDEST POP SWAP1 JUMP JUMPDEST JUMPDEST DUP1 DUP3 GT ISZERO PUSH2 0x4B4 JUMPI PUSH0 DUP2 PUSH0 SWAP1 SSTORE POP PUSH1 0x1 ADD PUSH2 0x49E JUMP JUMPDEST POP SWAP1 JUMP JUMPDEST PUSH0 DUP2 SWAP1 POP SWAP2 SWAP1 POP JUMP JUMPDEST PUSH2 0x4CA DUP2 PUSH2 0x4B8 JUMP JUMPDEST DUP3 MSTORE POP POP JUMP JUMPDEST PUSH0 PUSH1 0x20 DUP3 ADD SWAP1 POP PUSH2 0x4E3 PUSH0 DUP4 ADD DUP5 PUSH2 0x4C1 JUMP JUMPDEST SWAP3 SWAP2 POP POP JUMP JUMPDEST PUSH0 DUP1 REVERT JUMPDEST PUSH2 0x4F6 DUP2 PUSH2 0x4B8 JUMP JUMPDEST DUP2 EQ PUSH2 0x500 JUMPI PUSH0 DUP1 REVERT JUMPDEST POP JUMP JUMPDEST PUSH0 DUP2 CALLDATALOAD SWAP1 POP PUSH2 0x511 DUP2 PUSH2 0x4ED JUMP JUMPDEST SWAP3 SWAP2 POP POP JUMP JUMPDEST PUSH0 PUSH1 0x20 DUP3 DUP5 SUB SLT ISZERO PUSH2 0x52C JUMPI PUSH2 0x52B PUSH2 0x4E9 JUMP JUMPDEST JUMPDEST PUSH0 PUSH2 0x539 DUP5 DUP3 DUP6 ADD PUSH2 0x503 JUMP JUMPDEST SWAP2 POP POP SWAP3 SWAP2 POP POP JUMP JUMPDEST PUSH0 PUSH20 0xFFFFFFFFFFFFFFFFFFFFFFFFFFFFFFFFFFFFFFFF DUP3 AND SWAP1 POP SWAP2 SWAP1 POP JUMP JUMPDEST PUSH0 PUSH2 0x56B DUP3 PUSH2 0x542 JUMP JUMPDEST SWAP1 POP SWAP2 SWAP1 POP JUMP JUMPDEST PUSH2 0x57B DUP2 PUSH2 0x561 JUMP JUMPDEST DUP3 MSTORE POP POP JUMP JUMPDEST PUSH0 PUSH1 0x20 DUP3 ADD SWAP1 POP PUSH2 0x594 PUSH0 DUP4 ADD DUP5 PUSH2 0x572 JUMP JUMPDEST SWAP3 SWAP2 POP POP JUMP JUMPDEST PUSH0 PUSH2 0x5A4 DUP3 PUSH2 0x542 JUMP JUMPDEST SWAP1 POP SWAP2 SWAP1 POP JUMP JUMPDEST PUSH2 0x5B4 DUP2 PUSH2 0x59A JUMP JUMPDEST DUP3 MSTORE POP POP JUMP JUMPDEST PUSH0 PUSH1 0x20 DUP3 ADD SWAP1 POP PUSH2 0x5CD PUSH0 DUP4 ADD DUP5 PUSH2 0x5AB JUMP JUMPDEST SWAP3 SWAP2 POP POP JUMP JUMPDEST PUSH32 0x4E487B7100000000000000000000000000000000000000000000000000000000 PUSH0 MSTORE PUSH1 0x12 PUSH1 0x4 MSTORE PUSH1 0x24 PUSH0 REVERT JUMPDEST PUSH0 PUSH2 0x60A DUP3 PUSH2 0x4B8 JUMP JUMPDEST SWAP2 POP PUSH2 0x615 DUP4 PUSH2 0x4B8 JUMP JUMPDEST SWAP3 POP DUP3 PUSH2 0x625 JUMPI PUSH2 0x624 PUSH2 0x5D3 JUMP JUMPDEST JUMPDEST DUP3 DUP3 MOD SWAP1 POP SWAP3 SWAP2 POP POP JUMP JUMPDEST PUSH32 0x4E487B7100000000000000000000000000000000000000000000000000000000 PUSH0 MSTORE PUSH1 0x32 PUSH1 0x4 MSTORE PUSH1 0x24 PUSH0 REVERT JUMPDEST PUSH32 0x4E487B7100000000000000000000000000000000000000000000000000000000 PUSH0 MSTORE PUSH1 0x41 PUSH1 0x4 MSTORE PUSH1 0x24 PUSH0 REVERT JUMPDEST PUSH32 0x4E487B7100000000000000000000000000000000000000000000000000000000 PUSH0 MSTORE PUSH1 0x11 PUSH1 0x4 MSTORE PUSH1 0x24 PUSH0 REVERT JUMPDEST PUSH0 PUSH2 0x6C1 DUP3 PUSH2 0x4B8 JUMP JUMPDEST SWAP2 POP PUSH2 0x6CC DUP4 PUSH2 0x4B8 JUMP JUMPDEST SWAP3 POP DUP3 DUP3 SUB SWAP1 POP DUP2 DUP2 GT ISZERO PUSH2 0x6E4 JUMPI PUSH2 0x6E3 PUSH2 0x68A JUMP JUMPDEST JUMPDEST SWAP3 SWAP2 POP POP JUMP JUMPDEST PUSH0 DUP2 SWAP1 POP SWAP2 SWAP1 POP JUMP JUMPDEST PUSH0 DUP2 SWAP1 POP SWAP2 SWAP1 POP JUMP JUMPDEST PUSH2 0x70D PUSH2 0x708 DUP3 PUSH2 0x6EA JUMP JUMPDEST PUSH2 0x6F3 JUMP JUMPDEST DUP3 MSTORE POP POP JUMP JUMPDEST PUSH0 DUP2 SWAP1 POP SWAP2 SWAP1 POP JUMP JUMPDEST PUSH2 0x72D PUSH2 0x728 DUP3 PUSH2 0x4B8 JUMP JUMPDEST PUSH2 0x713 JUMP JUMPDEST DUP3 MSTORE POP POP JUMP JUMPDEST PUSH0 PUSH2 0x73E DUP3 DUP7 PUSH2 0x6FC JUMP JUMPDEST PUSH1 0x20 DUP3 ADD SWAP2 POP PUSH2 0x74E DUP3 DUP6 PUSH2 0x71C JUMP JUMPDEST PUSH1 0x20 DUP3 ADD SWAP2 POP PUSH2 0x75E DUP3 DUP5 PUSH2 0x71C JUMP JUMPDEST PUSH1 0x20 DUP3 ADD SWAP2 POP DUP2 SWAP1 POP SWAP5 SWAP4 POP POP POP POP JUMP INVALID LOG2 PUSH5 0x6970667358 0x22 SLT KECCAK256 0xF REVERT 0x2F BLOCKHASH 0xCD 0xE9 0xAC 0xDF LOG2 MSTORE8 DELEGATECALL PUSH13 0xFD6033C8F9498590C2D52432C1 PUSH20 0x76B9516D580464736F6C63430008160033000000 "
				},
				"gasEstimates": {
					"creation": {
						"codeDepositCost": "391400",
						"executionCost": "24693",
						"totalCost": "416093"
					},
					"external": {
						"getBalance()": "2481",
						"manager()": "2549",
						"participants(uint256)": "4966",
						"participantsCount()": "2506",
						"selectWinner()": "infinite"
					},
					"internal": {
						"generateRandomNumber()": "infinite"
					}
				},
				"methodIdentifiers": {
					"getBalance()": "12065fe0",
					"manager()": "481c6a75",
					"participants(uint256)": "35c1d349",
					"participantsCount()": "dd60c898",
					"selectWinner()": "33a99e04"
				}
			},
			"storageLayout": {
				"storage": [
					{
						"astId": 3,
						"contract": "Desktop/solid/lottery.sol:lottery",
						"label": "manager",
						"offset": 0,
						"slot": "0",
						"type": "t_address"
					},
					{
						"astId": 6,
						"contract": "Desktop/solid/lottery.sol:lottery",
						"label": "participants",
						"offset": 0,
						"slot": "1",
						"type": "t_array(t_address_payable)dyn_storage"
					}
				],
				"types": {
					"t_address": {
						"encoding": "inplace",
						"label": "address",
						"numberOfBytes": "20"
					},
					"t_address_payable": {
						"encoding": "inplace",
						"label": "address payable",
						"numberOfBytes": "20"
					},
					"t_array(t_address_payable)dyn_storage": {
						"base": "t_address_payable",
						"encoding": "dynamic_array",
						"label": "address payable[]",
						"numberOfBytes": "32"
					}
				}
			},
			"userdoc": {
				"kind": "user",
				"methods": {},
				"version": 1
			}
		}
	}
}